{
  "contractName": "Send",
  "abi": [
    {
      "inputs": [],
      "stateMutability": "payable",
      "type": "constructor"
    },
    {
      "inputs": [],
      "name": "where",
      "outputs": [
        {
          "internalType": "address",
          "name": "",
          "type": "address"
        }
      ],
      "stateMutability": "view",
      "type": "function"
    },
    {
      "inputs": [
        {
          "internalType": "address",
          "name": "_addr",
          "type": "address"
        }
      ],
      "name": "setAddr",
      "outputs": [],
      "stateMutability": "nonpayable",
      "type": "function"
    },
    {
      "inputs": [],
      "name": "sendEth",
      "outputs": [],
      "stateMutability": "payable",
      "type": "function"
    },
    {
      "inputs": [
        {
          "internalType": "address",
          "name": "_addr",
          "type": "address"
        }
      ],
      "name": "checkToken",
      "outputs": [
        {
          "internalType": "uint256",
          "name": "",
          "type": "uint256"
        }
      ],
      "stateMutability": "view",
      "type": "function"
    }
  ],
  "bytecode": "0x60806040526104e1806100136000396000f3fe60806040526004361061003f5760003560e01c806306e99fef146100445780639b9bef431461004e578063d1d80fdf14610079578063f1880b24146100a2575b600080fd5b61004c6100df565b005b34801561005a57600080fd5b506100636101b7565b60405161007091906102e2565b60405180910390f35b34801561008557600080fd5b506100a0600480360381019061009b919061032e565b6101db565b005b3480156100ae57600080fd5b506100c960048036038101906100c4919061032e565b61021e565b6040516100d69190610374565b60405180910390f35b60008060009054906101000a900473ffffffffffffffffffffffffffffffffffffffff1673ffffffffffffffffffffffffffffffffffffffff1667016345785d8a000060405161012e906103c0565b60006040518083038185875af1925050503d806000811461016b576040519150601f19603f3d011682016040523d82523d6000602084013e610170565b606091505b50509050806101b4576040517f08c379a00000000000000000000000000000000000000000000000000000000081526004016101ab90610432565b60405180910390fd5b50565b60008054906101000a900473ffffffffffffffffffffffffffffffffffffffff1681565b806000806101000a81548173ffffffffffffffffffffffffffffffffffffffff021916908373ffffffffffffffffffffffffffffffffffffffff16021790555050565b60008173ffffffffffffffffffffffffffffffffffffffff166370a08231306040518263ffffffff1660e01b815260040161025991906102e2565b602060405180830381865afa158015610276573d6000803e3d6000fd5b505050506040513d601f19601f8201168201806040525081019061029a919061047e565b9050919050565b600073ffffffffffffffffffffffffffffffffffffffff82169050919050565b60006102cc826102a1565b9050919050565b6102dc816102c1565b82525050565b60006020820190506102f760008301846102d3565b92915050565b600080fd5b61030b816102c1565b811461031657600080fd5b50565b60008135905061032881610302565b92915050565b600060208284031215610344576103436102fd565b5b600061035284828501610319565b91505092915050565b6000819050919050565b61036e8161035b565b82525050565b60006020820190506103896000830184610365565b92915050565b600081905092915050565b50565b60006103aa60008361038f565b91506103b58261039a565b600082019050919050565b60006103cb8261039d565b9150819050919050565b600082825260208201905092915050565b7f63616c6c206e6f6e206661697400000000000000000000000000000000000000600082015250565b600061041c600d836103d5565b9150610427826103e6565b602082019050919050565b6000602082019050818103600083015261044b8161040f565b9050919050565b61045b8161035b565b811461046657600080fd5b50565b60008151905061047881610452565b92915050565b600060208284031215610494576104936102fd565b5b60006104a284828501610469565b9150509291505056fea2646970667358221220e3d640a636542c717a3150a892461b4e88acadd65756dc2c8de733078c15b0bd64736f6c63430008110033",
  "immutableReferences": {},
  "source": "// SPDX-License-Identifier: GPL-3.0\n\npragma solidity 0.8.17;\n\nimport \"./Token.sol\";\n\ncontract Send {\n\n    address public where;\n\n    constructor() payable{}\n\n    function setAddr(address _addr) public {\n        where = _addr;\n    }\n\n    function sendEth() public payable {\n        (bool sent, )=where.call{value:0.1 ether}(\"\");\n        require(sent, \"call non fait\");\n    }\n\n    function checkToken(address _addr) public view returns (uint){\n        return Token(_addr).balanceOf(address(this));\n    }\n\n}",
  "sourcePath": "/root/dev/bestButerin/Promo-Buterin/2. Truffle & Hardhat/truffleFirst/contracts/Send.sol",
  "compiler": {
    "name": "solc",
    "version": "0.8.17+commit.8df45f5f.Emscripten.clang"
  },
  "schemaVersion": "3.4.10",
  "updatedAt": "2023-06-07T16:55:47.178Z",
  "devdoc": {
    "kind": "dev",
    "methods": {},
    "version": 1
  },
  "userdoc": {
    "kind": "user",
    "methods": {},
    "version": 1
  }
}